:100BC2002F313F4F54545D00FDF831414652545984
:100BD2005C00F9F73947485457595D5E00FE4548B5
:100BE2004E535556575B5E0041474A514F53525937
:100BF2005D5E404649484C4B53595B60363F414429
:100C020049515257606131343E3D474E4F545D5E0B
:100C120000313643464F51595B5CF900313F434A3C
:040C220051575C5B6F
:0D0D1200758902E4F58AF58CC28DD28C2221
:0C0D1F00758AB6758CB6C28D308DFD2231
:060CA10074112BF8E6FFC0
:100CA700D2B653900FEF54F04290D2B7C2B75390D9
:0E0CB7000FEFC454F04290D2B7C2B7020D1F27
:100CE600C2B653900FEF54F04290D2B7C2B75390AA
:0E0CF6000FEFC454F04290D2B7C2B7020D1FE8
:0D0D04007F01120CE61F120D1F0FBF28F912
:010D110022BF
:100CC500C2B653900F439020D2B7C2B7120D1F7F03
:100CD50028120CE67F0C120CE67F06120CE6020DBC
:010CE500040A
:100C2600EFB40A005042900C33F8282873020C5196
:100C3600020C54020C57020C5A020C5D020C6002A4
:100C46000C63020C66020C69020C6C7F30227F3149
:100C5600227F32227F33227F34227F35227F362243
:090C66007F37227F38227F3922FA
:060C6F007B007A007916FB
:100C7500AE07EE75F00A1209F5FF120C26EF120AFF
:100C850017EE75F00A1209F5AFF0120C2690000167
:0C0C9500EF120A299000027420020A29C4
:10080000E4F50BF50AF509F508F50CF50D750E0A7A
:10081000F50F75100AFBE4FAEAFF3395E0FEEBFDF5
:100820003395E0FC900BC275F00AED120B61EC758C
:10083000F00AA42583F583E5822FF582E5833EF552
:1008400083E493FFD36480F8742D6480985050EF54
:10085000648094DF5049EAFF3395E0FEEB3395E086
:10086000FC900BC275F00AED120B61EC75F00AA456
:100870002583F583E5822FF582E5833EF583E493B6
:10088000FF3395E0FEFDFCE50B2FF50BE50A3EF589
:100890000AE5093DF509E5083CF508050C8058C353
:1008A000EB64809485500FE50F6480F8EB648098CA
:1008B00040048B0F8015C3EB64809485400DE510D8
:1008C0006480F8EB64809850028B10C3EA648094D3
:1008D00085500FE50D6480F8EA64809840048A0D25
:1008E0008015C3EA64809485400DE50E6480F8EAC3
:1008F00064809850028A0E0AEA640A6003020818AB
:100900000BEB640A6003020816AF0CAB07EB3395E0
:10091000E0FAF9F8AF0BAE0AAD09AC08120ACF8FB6
:100920001C850C19AF0EEF3395E0FEAD0DED339540
:10093000E0FCED2FFFEC3EFE7C007D0A120A4B7DB1
:1009400002120A5D8F1AAF10EF3395E0FEAD0FED86
:100950003395E0FCED2FFFEC3EFE7C007D0A120A91
:100960004B7D02120A5D8F1B120D12120CC5751100
:100970004175125275134575144175153DAF191225
:100980000C6FE4FB120CA10BBB08F975114E75122C
:100990004475135675144975153DAF1C120C6FE460
:1009A000FB120CA10BBB08F97FC0120CE6751150AD
:1009B00075124F75135375145875153D7B007A00E9
:1009C0007916AF1A120C75E4FB120CA10BBB08F9D7
:1009D00075115075124F75135375145975153D7B6C
:1009E000007A007916AF1B120C75E4FB120CA10BF8
:0509F000BB08F980FEC8
:03000000020D2BC3
:0C0D2B00787FE4F6D8FD75811C020800FA
:1009F500C2D530F707B2D563F0FF05F030E70CB28A
:100A0500D5F4048463F0FF05F080018430D502F449
:020A15000422B9
:100A1700BB010689828A83F0225002F722BBFE01BE
:020A2700F322B8
:100A2900F8BB010DE58229F582E5833AF583E8F003
:100A3900225006E92582C8F622BBFE05E92582C8AF
:020A4900F22297
:100A4B00EF8DF0A4A8F0CF8CF0A428CE8DF0A42EBF
:020A5B00FE2279
:100A5D00C2D5EC30E709B2D5E4C39DFDE49CFCEEB4
:100A6D0030E715B2D5E4C39FFFE49EFE120B6DC3B4
:100A7D00E49DFDE49CFC8003120B6D30D507C3E4AF
:060A8D009FFFE49EFE2223
:100A930075F008758200EF2FFFEE33FECD33CDCC1A
:100AA30033CCC58233C5829BED9AEC99E58298409D
:100AB3000CF582EE9BFEED9AFDEC99FC0FD5F0D67A
:100AC300E4CEFBE4CDFAE4CCF9A88222B800C1B9A4
:100AD3000059BA002DEC8BF084CFCECDFCE5F0CBE2
:100AE300F97818EF2FFFEE33FEED33FDEC33FCEB1B
:100AF30033FB10D703994004EB99FB0FD8E5E4F9D6
:100B0300FA227818EF2FFFEE33FEED33FDEC33FCC2
:100B1300C933C910D7059BE99A4007EC9BFCE99AB6
:100B2300F90FD8E0E4C9FAE4CCFB2275F010EF2FFB
:100B3300FFEE33FEED33FDCC33CCC833C810D707FB
:100B43009BEC9AE899400AED9BFDEC9AFCE899F836
:0E0B53000FD5F0DAE4CDFBE4CCFAE4C8F922C9
:0C0B6100A42582F582E5F03583F583229F
:100B6D00BC000BBE0029EF8DF084FFADF022E4CC6C
:100B7D00F875F008EF2FFFEE33FEEC33FCEE9DEC35
:100B8D00984005FCEE9DFE0FD5F0E9E4CEFD22ED7B
:100B9D00F8F5F0EE8420D21CFEADF075F008EF2FC5
:100BAD00FFED33FD4007985006D5F0F222C398FDB6
:050BBD000FD5F0EA2253
:00000001FF
