:020000000A28CC
:10000800FE00030EF1000A08F200A7280B2883124D
:100018000313A3018301102883120313A10183167C
:10002800031386010E30850005308100A0308B0057
:10003800831205080E39F8007808A2002208200665
:100048000319272828286628013081200239031D32
:100058002E282F28342883120313A101A10A662809
:10006800023081200439031D3A283B2842280230F7
:10007800F800780883120313A10066280330812052
:100088000839031D4828492850280330F800780803
:1000980083120313A100662866282730F800780821
:1000A800A300383086007B281430F8007808A300B5
:1000B800DD3086007B280D30F8007808A3007D30FD
:1000C80086007B28831203132108F800F9017908B8
:1000D800003A031970287B287808013A0319512837
:1000E800033A03195828013A03195F287B28220884
:1000F800F8007808A0001C280A280730F3007308C5
:10010800F400F601F5019F288312031305080E3940
:10011800F3007308F70075087706031D94289528DF
:100128009A280130F3007308F6079B28F601770830
:10013800F3007308F50074087602031CA428A528A8
:100148008828770808008B1EAA28AB28BA280B1D18
:10015800AE28AF28BA28831203132308003C810075
:10016800FB30F00070088B050130850672088A00A4
:0A017800710E8300FE0E7E0E0900DA
:02400E00EA3F87
:00000001FF
